:020000040800F2
:100000001020002065020008F10D0008ED0D000829
:10001000EF0D0008A70400081D0F000800000000F5
:10002000000000000000000000000000CD010008FA
:10003000A90400080000000011020008FB0D0008E0
:100040007F0200087F0200087F0200087F0200088C
:100050007F0200087F0200087F0200087F0200087C
:100060007F0200087F0200087F0200087F0200086C
:100070007F0200087F0200087F0200087F0200085C
:100080007F0200087F0200087F0200087F0200084C
:100090007F0200087F0200087F0200087F0200083C
:1000A0007F0200087F0200087F0200087F0200082C
:1000B0007F0200087F0200087F0200087F0200081C
:1000C0007F0200087F0200087F0200087F0200080C
:1000D0007F0200087F0200087F0200087F020008FC
:1000E0007F0200087F0200087F0200087F020008EC
:1000F0007F0200087F0200087F0200087F020008DC
:100100007F0200087F0200087F0200087F020008CB
:100110007F0200087F0200087F0200087F020008BB
:100120007F0200087F0200087F0200087F020008AB
:1001300000F002F800F03AF80AA090E8000C8244BF
:100140008344AAF10107DA4501D100F02FF8AFF29C
:10015000090EBAE80F0013F0010F18BFFB1A43F0A5
:10016000010318473428000054280000103A24BF27
:1001700078C878C1FAD8520724BF30C830C144BF0C
:1001800004680C607047000000230024002500264E
:10019000103A28BF78C1FBD8520728BF30C148BFEA
:1001A0000B6070471FB51FBD10B510BD00F045F9BD
:1001B0001146FFF7F7FF00F0C3FE00F063F903B448
:1001C000FFF7F2FF03BC00F067F90000224B19684B
:1001D0000868B0E8F00F80F30988BFF36F8F4FF025
:1001E000000080F311884EF00D0E704700000000F3
:1001F00006480068006880F3088862B661B6BFF3FD
:100200004F8FBFF36F8F00DF00BF00BF08ED00E02E
:10021000EFF30980BFF36F8F0F4B1A6820E9F00FDF
:10022000106008B54FF0500080F31188BFF34F8F76
:10023000BFF36F8F01F032FE4FF0000080F31188A2
:10024000BDE8084019680868B0E8F00F80F3098835
:10025000BFF36F8F704700BF18000020EFF30580D9
:10026000704700000948804709480047FEE7FEE75D
:10027000FEE7FEE7FEE7FEE7FEE7FEE7FEE7FEE756
:1002800004480549054A064B70470000630E000804
:1002900031010008101A002010200020101C00203E
:1002A000101C0020032A40F2308010F0030C00F0F4
:1002B000158011F8013BBCF1020F624498BF11F8A0
:1002C00001CB00F8013B38BF11F8013BA2F1040259
:1002D00098BF00F801CB38BF00F8013B11F00303D1
:1002E00000F05780083AC0F0088051F8043B083A03
:1002F00051F804CBA0E80810F5E7121D5CBF51F8D7
:10030000043B40F8043BAFF30080D20724BF11F850
:10031000013B11F801CB48BF11F8012B24BF00F8B5
:10032000013B00F801CB48BF00F8012B704702F0F9
:10033000FF0343EA032242EA024200F05EB84FF0B4
:10034000000200B5134694469646203922BFA0E825
:100350000C50A0E80C50B1F12001BFF4F7AF090731
:1003600028BFA0E80C5048BF0CC05DF804EB890022
:1003700028BF40F8042B08BF704748BF20F8022B65
:1003800011F0804F18BF00F8012B7047704770477D
:10039000704710B5203AC0F00B80B1E81850203AF1
:1003A000A0E81850B1E81850A0E81850BFF4F5AF15
:1003B0005FEA027C24BFB1E81850A0E8185044BF9F
:1003C00018C918C0BDE810405FEA827C24BF51F80C
:1003D000043B40F8043B08BF7047D20728BF31F800
:1003E000023B48BF11F8012B28BF20F8023B48BF51
:1003F00000F8012B70474FF000020429C0F0128072
:1004000010F0030C3FF49DAFCCF1040CBCF1020FD3
:1004100018BF00F8012BA8BF20F8022BA1EB0C019C
:10042000FFF78FBF5FEAC17C24BF00F8012B00F803
:10043000012B48BF00F8012B7047754600F028F8E3
:10044000AE4605006946534620F00700854618B0C1
:1004500020B5FFF715FFBDE820404FF000064FF034
:1004600000074FF000084FF0000B21F00701AC46E9
:10047000ACE8C009ACE8C009ACE8C009ACE8C00908
:100480008D4670470446AFF300802046FFF797FE85
:1004900000487047AC19002001491820ABBEFEE7A8
:1004A000260002007047FEE77047000070B5044662
:1004B00000F010F90546601C02D00448007804449E
:1004C00000F008F9401BA042FAD370BD08000020DC
:1004D0002DE9F84FDFF8C8910024A9F1040B234659
:1004E0000F2709F1040AABF1040ED1E00125A54064
:1004F00006EA0502AA4276D1DFF8A8C14E68A6EB4B
:100500000C0866452BD00DDC032E34D005DC36B349
:10051000012E19D0022E2FD11BE0112E16D0122E33
:100520002AD119E0B8F5881F19D006DCB8F5803F4C
:1005300015D0B8F5801F1FD111E0B8F5001F0ED0FF
:10054000B8F5041F18D10AE0CB6815E0CB681B1D75
:1005500012E0CB6808330FE0CB680C330CE08B68FB
:100560002BB1012B4FF0080303D0456104E00423B5
:1005700002E0056100E00023FF2A01D8064601E001
:1005800000F104064FEA840501D9A5F12005D6F84B
:10059000008007FA05FC28EA0C0803FA05F548EA8A
:1005A0000508C6F800804D68ED0070D53E4DAE6977
:1005B00046F00106AE61AD6924F0030605F00105C1
:1005C00000953A4D06EB050CDCF80850A607360FEF
:1005D00007FA06F825EA0805DFF8D480404503D17C
:1005E0004FF0000825E052E0DFF8C880404502D116
:1005F0004FF001081DE0DFF8C080404502D14FF008
:10060000020816E0DFF8B480404502D14FF003083D
:100610000FE0DFF8AC80404502D14FF0040808E05D
:10062000DFF8A080404502D14FF0050801E04FF00F
:10063000060808FA06F848EA0508CCF808804D686C
:10064000D9F80060ED024D4601D5164300E096430F
:100650002E604D68DAF80060AD02554601D51643AC
:1006600000E096432E604D68DBF80060AD035D4608
:1006700001D5164300E096432E604D68DEF8006019
:10068000ED03754601D5164300E096432E60641CC9
:100690000A681646E2407FF429AFBDE8F88F0000F3
:1006A0000804014000001110001002400000014049
:1006B00000080140000C01400010014000140140FE
:1006C00000180140001C01400AB101617047090493
:1006D000FBE7000001488068704700000800002028
:1006E0000248816802781144816070470800002048
:1006F000074810B5016841F010010160032000F0C7
:10070000ABF80F2000F006F800F024F8002010BD30
:100710000020024070B50D4D04464FF47A712878E0
:10072000B1FBF0F00A490968B1FBF0F000F012FBF0
:1007300048B9102C07D200222146501E00F06CF858
:1007400000206C6070BD012070BD0000080000201A
:10075000140000200B4882B0816941F001018161E1
:10076000816901F001010091C16941F08051C161CD
:10077000C069002200F0805000900F21901E02B04E
:1007800000F04AB8001002402DE9F04116460F462D
:10079000040004D094F84100002518B107E00120BE
:1007A000BDE8F08184F84050204600F0E7FA2420AC
:1007B00084F841002068C16821F40051C1602046DE
:1007C00000F050FB2068016921F49041016120682C
:1007D000416921F02A0141612068016921F00F017E
:1007E000016120680169394301612068C16821F411
:1007F0000061C1602068C1683143C1602068C16880
:1008000041F40051C1606564202084F8410084F8FF
:10081000420065630020C3E7F0B40E4B1B680C4632
:10082000C3F30223C3F10705042D00D90425191DC4
:10083000072901D2002300E0DB1E012606FA05F19C
:10084000491E214099409E40761E16403143F0BC1F
:1008500000F065BB0CED00E0064900F007020868F7
:100860004FF6FF03184040EA0220034A1043086095
:10087000704700000CED00E00000FA052DE9F0479C
:100880000F46050061D0434E306800F00700B842C3
:1008900009D2306820F0070038433060306800F03B
:1008A0000700B84251D128683B4C810712D5400758
:1008B00003D5606840F4E06060602878000703D5E5
:1008C000606840F4605060606068A96820F0F000E3
:1008D000084360602878C00728D06868012810D0D5
:1008E0002168022810D0890700292EDA616821F0DA
:1008F000030101436160FFF7EDFE804641F2883954
:100900000DE021688903EFE78901EDE7FFF7E2FEDB
:10091000A0EB0801494502D90320BDE8F0876068D3
:10092000696800F00C00B0EB810FEFD1306800F087
:100930000700B8420BD9306820F007003843306018
:10094000306800F00700B84201D00120E5E72878C0
:10095000400705D56068E96820F4E06008436060FE
:100960002878000706D56068296920F4605040EABD
:10097000C100606000F038F86168084AC1F30311F3
:10098000515CC8400649086006480068FFF7C2FE8F
:100990000020C2E700200240001002407229000837
:1009A000140000200C000020044805490068496834
:1009B000044AC1F30221515CC84070471400002072
:1009C000001002408229000804480549006849686F
:1009D000044AC1F3C221515CC84070471400002092
:1009E00000100240822900080E4A51680E4801F0AA
:1009F0000C03042B11D0082B0FD10C48C1F38343F7
:100A0000C903C05C0AD55168084AC1F34041921E2F
:100A1000515C054A5043B0FBF1F07047044948432C
:100A2000704700000010024000127A00622900089E
:100A300000093D002DE9F84F040070D02078C04D2A
:100A4000C00749D06868C0F38100012807D06868F2
:100A5000C0F38100022809D16868C00306D5286860
:100A6000800339D560680028E7D035E06068B0F5CC
:100A7000803F0BD010B1B0F5A02F11D0286820F422
:100A800080302860286820F4802002E0286840F444
:100A900080302860606890B1FFF71CFE06460AE0CF
:100AA000286840F480202860F0E700BFFFF712FEBE
:100AB000801B642873D828688003F7D50CE0FFF703
:100AC00009FE064605E000BFFFF704FE801B642810
:100AD000F0D828688003F7D420789A4E80074FF02A
:100AE00001094FF0000839D5686810F00C0F07D0E5
:100AF0006868C0F38100022809D16868C00306D481
:100B00002868800714D52069012808D110E02069E1
:100B1000B0B1C6F80090FFF7DDFD074605E00AE139
:100B2000FFF7D8FDC01B0228C4D828688007F7D576
:100B30002868616920F0F80040EAC10028600DE0F3
:100B4000C6F80080FFF7C6FD074604E0FFF7C2FDC8
:100B5000C01B022823D828688007F7D42078000714
:100B60002CD57948A169D9B1C0F80090FFF7B2FD42
:100B7000074604E0FFF7AEFDC01B02280FD8686AE5
:100B80008007F7D571484FF4FA510068B0FBF1F0D7
:100B9000009000BF0098411E0091FAD20EE080E064
:100BA000C0F80080FFF796FD074604E0FFF792FDCE
:100BB000C01B022875D8686A8007F7D420784007E0
:100BC00060D5E8690027C00008D4E86940F080508B
:100BD000E861E869012700F0805000905C480168F6
:100BE000C90513D40168834641F480710160FFF7A1
:100BF00071FD824606E000BFFFF76CFDA0EB0A0026
:100C000064284ED8DBF80000C005F5D5E06801285F
:100C10000AD008B1052813D0286A20F00100286204
:100C2000286A20F0040002E0286A40F001002862EF
:100C3000E06841F2883B98B1FFF74CFD82460BE03B
:100C4000286A40F004002862EEE700BFFFF742FD8B
:100C5000A0EB0A0159455AD8286A8007F6D50CE05E
:100C6000FFF738FD824605E0FFF734FDA0EB0A01EF
:100C700059454CD8286A8007F6D41FB1E86920F09E
:100C80008050E861E06988B36968C1F38101022995
:100C900044D00228C6F8608004D0FFF71BFD04464C
:100CA00038E034E0FFF716FD074604E0FFF712FDD9
:100CB000C01B02282BD828688001F7D4206AB0F521
:100CC000803F05D16868A16820F40030084368605F
:100CD000D4E908010843696821F474110843686085
:100CE000C6F86090FFF7F6FC044606E025E000BF7A
:100CF000FFF7F0FC001B022809D828688001F7D50F
:100D00001BE000BFFFF7E6FC001B022802D903200E
:100D1000BDE8F88F28688001F4D40EE00128F7D0F0
:100D20006868226A00F48031914204D1616A00F45B
:100D30007010884201D00120EAE70020E8E70000B7
:100D40000010024000004242800442421400002091
:100D50000070004010B5401EB0F1807F01D301202B
:100D600010BD4FF0E02460610F21601700F0D7F84C
:100D70000020A06107202061002010BD30B585B0A3
:100D8000002400940194029403940068144988425A
:100D900024D11448C16941F40021C161C16901F441
:100DA00000210491816941F01001816180690E4D3B
:100DB00000F0100004904FF4806000900220019039
:100DC0000320039069462846FFF782FBE814CDE92B
:100DD0000004694628460294FFF77AFB05B030BD4F
:100DE000004C00400010024000100140FEE7FEE70A
:100DF000FEE7012000F016F9FBE710B5FFF770FCE5
:100E000001F0D2FB012803D0BDE8104001F0D6B8B4
:100E100010BD10B590B028216846FFF790FA142154
:100E20000AA8FFF78CFA02200090012004901020FD
:100E30000024059007946846FFF7FCFD08B172B6E0
:100E4000FEE70F20CDE90A040C940D9400210AA8B6
:100E50000E94FFF713FD002801D072B6FEE710B024
:100E600010BD704770B5044600680169E26821F45E
:100E70004051114301612169A06808436169084339
:100E80002168CA6841F20C639A430243CA60206831
:100E90004169A26921F44071114341611E492068F2
:100EA000884202D1FFF790FD01E0FFF77DFD00EBE6
:100EB000C00101EB0012606864218000B2FBF0F316
:100EC000B3FBF1F36FF018067343B2FBF0F5B2FB1E
:100ED000F0F605EB8305322303EB0515B5FBF1F5C1
:100EE000B6FBF1F605F0F00505EB0615B2FBF0F6E2
:100EF000B2FBF0F0B0FBF1F06FF01802504306EBDC
:100F0000800003EB0010B0FBF1F0216800F00F004F
:100F10002844886070BD000000380140FEE70907E2
:100F2000090E002804DB00F1E02080F8001470476F
:100F300000F00F0000F1E02080F8141D7047000061
:100F400086B0FFF7D5FBFFF764FF00252E4800951C
:100F5000019502950395816941F0040181618169E0
:100F600001F004010491816941F0100181618069FF
:100F7000264E00F010004FF4005404900022214649
:100F80003046FFF7A1FB0120CDE900400220CDE96A
:100F9000025069463046FFF79BFA1E4A1C48106013
:100FA0004FF4E130C2E901050C20D560C2E90450DC
:100FB0009561D561002211461648FFF7E5FB08B19F
:100FC00072B6FEE700F04AF8134A0021134800F019
:100FD00081F8134D686000F05DF84FF47A77384679
:100FE000FFF764FA28880022401C288021463046FA
:100FF000FFF76AFB3846FFF759FA012221463046CF
:10100000FFF762FBEBE70000001002400008014020
:10101000004C0040900000203C290008F30D00081F
:101020000000002010B50146EFF3058048B9EFF34A
:10103000108030B908480068022805D1EFF311800C
:1010400010B16FF0050404E0002411B1084600F06F
:1010500067FE204610BD000068000020EFF3058009
:10106000002809D1EFF3108030B9094A106802282E
:1010700005D1EFF3118111B16FF00500704710B188
:101080004FF0FF30704701201060002070470000D3
:101090006800002010B5EFF30580002809D1EFF3B8
:1010A000108030B90A4A1068022805D1EFF3118187
:1010B00011B16FF0050010BD012802D04FF0FF30D4
:1010C00010BD0220106000F099FE002010BD00004D
:1010D000680000202DE9F04385B00B464FF0000773
:1010E0000397EFF3058100295DD1EFF3108100290B
:1010F00059D12F490968022903D1EFF31181002941
:1011000051D100284FD080244FF0180C04970DF1D6
:1011100010094FF0FF3152B3166806B1B146956918
:1011200005B1AC46ACF10105382D03D2157915F0A7
:10113000010F03D005B00020BDE8F083556905B16B
:10114000AC08D2F80880B8F1000F07D0D6685C2E42
:1011500004D3166916B10DB1012109E0B8F1000FF1
:1011600006D1D56825B9156915B9002100E000211F
:10117000012901D061B116E09168126901920291D2
:10118000CDF800C02246494601F0DEF903900AE09E
:1011900003A90191A2B2CDF800C0494601F09EF921
:1011A000012800D00397039805B0BDE8F083000044
:1011B000680000202DE9F04104460F46134E756982
:1011C0003068001D00F072FCB4F1FF3F07D137B169
:1011D0003068BDE8F041011D0D4800F0BABC2C4458
:1011E00030684460AC4206D23068011DB068BDE88A
:1011F000F04100F093BC3068011D706800F08EFC77
:10120000306B844200D23463BDE8F08118000020C6
:10121000C805002070B5044600F0A8FC1C4D2869E4
:10122000401C2861286810B1E86938B10CE02C60D6
:101230002869012808D100F08FF905E02868E16AE3
:10124000C06A884200D82C60E86A401CE86260648A
:10125000E06AA969884200D9A8610E4900EB8000C4
:1012600001EB8000211D00F074FC00F09FFCE86998
:1012700000280CD02868E16AC06A884207D2064973
:101280004FF080500860BFF34F8FBFF36F8F70BD7A
:10129000180000201801002004ED00E038B500F02F
:1012A00065FC0F4CA068B8B90E4800F029FC0E4848
:1012B00000F026FC0B4820601430606000200B4BCF
:1012C000009003F1500210210A2000F08DFEA06072
:1012D00010B107A100F0EAFCBDE8384000F066BCA0
:1012E00054000020DC050020F0050020040600204A
:1012F000546D72510000000070B50D4CE06800287C
:1013000015D00C4E00F032FCF068C568281D00F0C6
:10131000CDFB2069401E2061E068401EE06000F0C7
:1013200045FC284600F051F8E0680028EAD170BD7D
:1013300018000020B40500200B46026C002A0CD0D7
:10134000C1681144C160D0F804C0614501D301688F
:10135000C160C1681846FEF7A5BF70472DE9F0418E
:10136000044616460027A56B226C002A10D0C6B191
:10137000E068FEF797FFE168206C091AE1602268D7
:10138000914202D26168081AE060022E16D017E07E
:101390002068A8B9606801F081F907460020606004
:1013A0000EE0A068FEF77EFF216CA0680844A060F4
:1013B0006168884204D32068A06001E005B16D1E19
:1013C000681CA0633846BDE8F08110B5044694F867
:1013D000591000290BD0012911D0022914D0502016
:1013E00080F31188BFF34F8FBFF36F8FFEE7206B41
:1013F00000F0F2FB2046BDE8104000F0EDBB2046B7
:10140000BDE8104000F0E8BB10BD000007490A68C5
:101410001168002904D00021016019B10020704733
:101420000121F9E7D06800687047000054000020EF
:101430004FF44061104810F0070F06D0C01D20F097
:1014400007000D49411AC1F540610C4A10600023A4
:1014500053600144083921F00701103A11604B60D4
:101460000B600B1A436001604068906050604FF061
:101470000040D06070470000AC0D00207C000020D0
:10148000074E4FF08054074DFFF736FF30680128B4
:10149000FAD92C60BFF34F8FBFF36F8FF4E70000D2
:1014A0001801002004ED00E070B51D46049C0029E1
:1014B00009D02260E06321640121204600F0CCFDC8
:1014C00084F84C5070BD2460F4E72DE9F05F82464B
:1014D0000B9F0A9D0C9C0E4690469B464FEA880146
:1014E000A522206BFEF723FF206BA8F1010100EB82
:1014F000810020F007094FF0000800202218315C1D
:1015000082F83410315C11B1401C1028F6D384F8F5
:101510004380382D00D33725E562E564C4F8508058
:10152000201D00F0F8FA04F1180000F0F4FA24612C
:10153000C5F13800A0616462C4F8548084F8588012
:101540005A465146484600F09FFA2060002F00D0CE
:101550003C60BDE8F09F000070B500240F4D04EB27
:10156000840005EB800000F0CBFA641C382CF6D325
:101570000B4800F0C5FA0B4800F0C2FA0A4800F028
:10158000BFFA0A4800F0BCFA094800F0B9FA094865
:10159000034941601431816070BD000018010020D2
:1015A000780500208C050020A0050020B40500204F
:1015B000C80500201800002010B4144900E01146AE
:1015C0000A688242FBD34B6803EB010C844503D1CC
:1015D00040681844486008460C68D0F804C00CEB1A
:1015E0000003A3420CD10A4B1B689A4206D05268F2
:1015F000624442600A681268026002E0036000E030
:101600000260814200D0086010BC70477C0000205E
:101610006C00002010B5002441600061DFF838C084
:1016200091420BD8D11A8269914201D3012410E072
:10163000011DDCF8040000F071FA0AE09A4203D2BE
:10164000994201D3012404E0011DDCF8000000F000
:1016500065FA204610BD00005400002010B5044675
:1016600000F084FAA06B20B1002400F09FFA20461D
:1016700010BD0124F9E710B5044600F077FAA06B1D
:10168000E16B884201D1012400E0002400F08EFAD1
:10169000204610BDF8B505460E4614480068C068DF
:1016A000C468201D00F002FAE069012810D1A06989
:1016B0002B46411932462046FFF7ACFF40B10020CF
:1016C0000346014600902A46204601F0FDF828B165
:1016D000616A01B02046BDE8F0400847502080F321
:1016E0001188BFF34F8FBFF36F8FFEE754000020C8
:1016F00030B587B0334D002202A9A86800F00AFE79
:1017000000285CD00298002803DA039A059904980F
:101710009047029800284BDB049C606910B1201DA3
:1017200000F0C4F901A800F097F8024602980A28D0
:101730003ED2DFE800F00505053D263705053D26CC
:101740000398A169034601442046FFF763FF00B3F5
:10175000616A20468847E069012829D1002000906D
:101760000398A169002342181946204601F0ACF8FD
:1017700078B9502080F31188BFF34F8FBFF36F8F7C
:10178000FEE70398A06128B1811813462046FFF7B1
:1017900041FF0DE0502080F31188BFF34F8FBFF35E
:1017A0006F8FFEE794F82C0010B9204600F014FA71
:1017B000002202A9A86800F0ADFD0028A2D107B060
:1017C00030BD000054000020F8B505460C4600F07E
:1017D0005DFB684600F040F80646009810B100F046
:1017E000D9FFF8BD44B9B54206D800F0D3FF314661
:1017F0002846FFF74FFFF8BD0C481CB14168096847
:1018000091B10024A91B2246806800F063FA00F021
:10181000C1FF0028EFD106494FF080500860BFF3A8
:101820004F8FBFF36F8FF8BD0124EBE7540000200A
:1018300004ED00E0074948680068002805D04868C2
:10184000C068C0684068086370474FF0FF300863A5
:10185000704700001800002070B5044600F0B2FE8A
:101860000546074E3069854204D200F00BF801208E
:10187000206001E0002020603561284670BD000036
:1018800054000020F8B51B4E30680068002824D0B2
:1018900000273068C0680568C468201D00F006F99C
:1018A000616A20468847E069012812D1A06928446E
:1018B000A84206D960602461211D306800F02EF92D
:1018C00007E000232A4619462046009700F0FCFF57
:1018D00040B1306800680028DBD130687168316041
:1018E0007060F8BD502080F31188BFF34F8FBFF3B5
:1018F0006F8FFEE7540000200A484068B0F1FF3FB8
:1019000007D0502080F31188BFF34F8FBFF36F8F44
:10191000FEE7502080F31188BFF34F8FBFF36F8F26
:10192000FEE700008400002082B001A8FFF76EFDF2
:101930000199FFF749FFFFF7DBFEF6E770B50446B4
:1019400000F014F994F94550002D0CDD606A50B197
:1019500004F1240000F0E2FE08B100F011FA681E64
:1019600045B2002DF2DC4FF0FF3684F8456000F000
:101970001DF900F0FBF894F94450002D0CDD2069AE
:1019800050B104F1100000F0C9FE08B100F0F8F900
:10199000681E45B2002DF2DC84F84460BDE870405A
:1019A00000F004B92DE9F0410546002600F06EFA7A
:1019B000334F386808B9FFF73BFDF86805424ED150
:1019C0009DB1083515F0070F0FD005F00700C0F1E5
:1019D0000800054415F0070F07D0502080F3118848
:1019E000BFF34F8FBFF36F8FFEE7002D37D07868BE
:1019F000854234D823490846046801E0214604465C
:101A00006068A84202D220680028F7D13868844272
:101A100025D0086800F10806206808606068411B4E
:101A200010290FD9601910F0070F07D0502080F34C
:101A30001188BFF34F8FBFF36F8FFEE74160656082
:101A4000FFF7BAFD61687868401A7860BA6890421A
:101A500000D2B860F868084360600020206000F0A1
:101A600099FE16F0070F07D0502080F31188BFF3BE
:101A70004F8FBFF36F8FFEE73046BDE8F081000067
:101A80006C0000207C000020001F4FF0807303607A
:101A9000001F21F001010160001F0349016014389B
:101AA0000260203870470000F91800080169436897
:101AB00082689A60836842685A604A68824201D1AB
:101AC00082684A60002202610868401E0860086857
:101AD00070470000034B036003F15C000860802046
:101AE00010607047F4060020044B036003F15C00B3
:101AF00008604FF4807010607047000050090020AB
:101B000000F1080141604FF0FF328260C160016165
:101B100000210160704700210161704710B4D1F8C5
:101B200000C0BCF1FF3F02D000F1080202E00269F0
:101B300004E01A4653681C686445FAD953684B6040
:101B400099608A60516008610168491C016010BC9D
:101B5000704742684A6093688B60936859609160EF
:101B600008610168491C016070470000502080F343
:101B70001188BFF34F8FBFF36F8F0A494868401C2D
:101B8000486001280CD10848006810F0FF0F07D00A
:101B9000502080F31188BFF34F8FBFF36F8FFEE7A4
:101BA000704700008400002004ED00E00949486807
:101BB000002806D0401E4860002801D180F311881B
:101BC0007047502080F31188BFF34F8FBFF36F8FA2
:101BD000FEE700008400002070B5002827D0A0F1A7
:101BE0000804134D6068E968084207D1502080F36B
:101BF0001188BFF34F8FBFF36F8FFEE722683AB1B2
:101C0000502080F31188BFF34F8FBFF36F8FFEE733
:101C10008843606000F03AF9606869680844686069
:101C20002046FFF7C9FCBDE8704000F0B3BD70BDB1
:101C30006C0000204FF0E020002101618161054926
:101C40004FF47A720968B1FBF2F1491E4161072134
:101C5000016170471400002010B5FEF7FFFA11492A
:101C600010280ED300F1E02090F8F0030A7890429B
:101C700007D2502080F31188BFF34F8FBFF36F8FCF
:101C8000FEE709480068896800F4E060884207D9E7
:101C9000502080F31188BFF34F8FBFF36F8FFEE7A3
:101CA00010BD0000840000200CED00E00022084B75
:101CB00053F832C0BCF1000F03D0521C082AF7D3EE
:101CC000704743F8321003EBC201486070470000D0
:101CD000D800002070B504460D461646FFF746FFB3
:101CE00094F94400B0F1FF3F4FF0000001D184F8B7
:101CF000440094F94510B1F1FF3F01D184F845004B
:101D0000FFF754FFA06B28B93246294604F124009E
:101D100000F056F82046BDE87040FFF70FBE000007
:101D200010B502460020002A12D00F48806B38B14F
:101D3000502080F31188BFF34F8FBFF36F8FFEE702
:101D400000F0A4F800211046FFF734FA00F022FD5D
:101D5000002807D105494FF080500860BFF34F8F2E
:101D6000BFF36F8F10BD00001800002004ED00E0ED
:101D700002498A6A02604969416070471800002080
:101D800001490120486270471800002010B50C4638
:101D900000280BD0094A126802F11801FFF7BEFEB5
:101DA0002046BDE810400121FFF704BA502080F31F
:101DB0001188BFF34F8FBFF36F8FFEE7180000202D
:101DC00070B50D46144600280DD00B49096818312E
:101DD000FFF7BFFE0CB14FF0FF3521462846BDE8A6
:101DE0007040FFF7E7B9502080F31188BFF34F8FA1
:101DF000BFF36F8FFEE700001800002030B587B0FA
:101E000000250695059504AA05A906A8FFF762FE18
:101E100006980599019102900023009517A1194891
:101E2000049A00F091FB184C606308B1012000E0B7
:101E30000020012801D100F013FD01280AD0B0F1E3
:101E4000FF3F19D1502080F31188BFF34F8FBFF3AC
:101E50006F8FFEE7502080F31188BFF34F8FBFF3E1
:101E60006F8F4FF0FF3020630120E061656107B0A4
:101E7000BDE8304000F048B807B030BD49444C459B
:101E80000000000081140008180000200248816B47
:101E9000491C81637047000018000020184B986BA4
:101EA000002802D0012058627047002058629869CB
:101EB000144900EB800251F822203AB9C0B1401E0B
:101EC00000EB800251F82220002AF7D000EB8002BC
:101ED00001EB82014A6852684A6001F1080C6245D0
:101EE00001D152684A604968C968196098617047B1
:101EF000502080F31188BFF34F8FBFF36F8FFEE741
:101F0000180000201801002000B583B02849087887
:101F10000290FF200870087801909DF804009DF859
:101F2000042000F0F000904207D0502080F3118888
:101F3000BFF34F8FBFF36F8FFEE79DF804001D4B7B
:101F400000F050001870072098609DF8040010F011
:101F5000800F0BD09868401E98609DF804004000E8
:101F600001909DF8040010F0800FF3D198680328C9
:101F700007D0502080F31188BFF34F8FBFF36F8FCE
:101F8000FEE74FF440709860029808700A480168B4
:101F900041F470010160016841F070410160FFF798
:101FA00049FE00205860FEF723F903B0002000BD71
:101FB00000E400E08400002020ED00E010B5502097
:101FC00080F31188BFF34F8FBFF36F8F00F000FBDA
:101FD00018B104494FF080500860002080F3118848
:101FE00010BD000004ED00E038B5049D002804D0C9
:101FF0005BB102B189B1C2B120E0502080F31188F9
:10200000BFF34F8FBFF36F8FFEE7502080F311882F
:10201000BFF34F8FBFF36F8FFEE7502080F311881F
:10202000BFF34F8FBFF36F8FFEE739B1502080F3BE
:102030001188BFF34F8FBFF36F8FFEE74FF0500C47
:10204000CDF800C01C46012384F846302B4600948E
:10205000FFF72AFA204638BD70B504460D46002C1D
:1020600025D0FFF783FD226CE16B206801FB0200A5
:1020700060600020A0632068A060E16B226C206893
:10208000491E01FB0200E0604FF0FF3084F844007D
:1020900084F845009DB104F11000FFF731FD04F113
:1020A0002400FFF72DFDFFF781FD012070BD5020BA
:1020B00080F31188BFF34F8FBFF36F8FFEE7206966
:1020C0000028F0D004F1100000F028FB0028EAD02E
:1020D00004494FF080500860BFF34F8FBFF36F8FFC
:1020E000E1E7000004ED00E02DE9FF4782B004467F
:1020F0008A461F460025002C03D0BAF1000F08D0F5
:1021000011E0502080F31188BFF34F8FBFF36F8F22
:10211000FEE7206C38B1502080F31188BFF34F8F59
:10212000BFF36F8FFEE7022F0AD1E06B012807D0C3
:10213000502080F31188BFF34F8FBFF36F8FFEE7FE
:1021400000F032FA48B9049838B1502080F3118871
:10215000BFF34F8FBFF36F8FFEE700264FF080581D
:10216000DFF8F090FFF702FDA06BE16B884205D32A
:10217000022F03D0049808B335B329E03A465146FC
:102180002046FFF7EBF8616A59B104F1240000F032
:10219000C5FA68B1C9F80080BFF34F8FBFF36F8FE6
:1021A00006E028B1C9F80080BFF34F8FBFF36F8FEF
:1021B000FFF7FCFC06B00120BDE8F087FFF7F6FC56
:1021C00006B00020BDE8F0876846FFF7D1FD012585
:1021D000FFF7ECFCFFF75AFEFFF7C8FC94F9440048
:1021E000B0F1FF3F01D184F8446094F94500B0F1AB
:1021F000FF3F01D184F84560FFF7D8FC04A9684689
:1022000000F02CF940B12046FFF798FB00F0C2FA2D
:1022100006B00020BDE8F0872046FFF72CFA90B109
:1022200004F110000499FFF7B1FD2046FFF786FB8B
:1022300000F0B0FA002895D1C9F80080BFF34F8FA5
:10224000BFF36F8F8EE72046FFF778FB00F0A2FA0E
:1022500088E7000004ED00E02DE9F04704468946D8
:1022600017461E46002C03D0B9F1000F08D011E02C
:10227000502080F31188BFF34F8FBFF36F8FFEE7BD
:10228000206C38B1502080F31188BFF34F8FBFF31B
:102290006F8FFEE7022E0AD1E06B012807D0502095
:1022A00080F31188BFF34F8FBFF36F8FFEE7FFF707
:1022B000D3FC5020EFF3118880F31188BFF34F8FC8
:1022C000BFF36F8FA06BE16B884206D3022E04D060
:1022D000002088F31188BDE8F08794F94550324614
:1022E00049462046FFF73AF8B5F1FF3F04D0681C95
:1022F00084F845000120ECE7606A0028FAD004F178
:10230000240000F00BFA0028F4D0002FF2D00120B6
:102310003860EFE72DE9F74783B004468A46002589
:10232000002C03D0BAF1000F08D011E0502080F348
:102330001188BFF34F8FBFF36F8FFEE7206C38B16A
:10234000502080F31188BFF34F8FBFF36F8FFEE7EC
:1023500000F02AF948B9059838B1502080F3118867
:10236000BFF34F8FBFF36F8FFEE700274FF080580A
:10237000DFF8E490FFF7FAFBA66BC6B151462046A2
:10238000FEF7DAFF701EA063206950B104F110005F
:1023900000F0C4F928B1C9F80080BFF34F8FBFF334
:1023A0006F8FFFF703FC06B00120BDE8F0870598AA
:1023B00008B135B109E0FFF7F9FB06B00020BDE830
:1023C000F0876846FFF7D4FC0125FFF7EFFBFFF726
:1023D0005DFDFFF7CBFB94F94400B0F1FF3F01D165
:1023E00084F8447094F94500B0F1FF3F01D184F8BE
:1023F0004570FFF7DBFB05A9684600F02FF868B1D0
:102400002046FFF79BFA00F0C5F92046FFF726F9B2
:102410000028AFD006B00020BDE8F0872046FFF7C7
:102420001DF990B104F124000599FFF7AFFC204697
:10243000FFF784FA00F0AEF900289BD1C9F80080BC
:10244000BFF34F8FBFF36F8F94E72046FFF776FA05
:1024500000F0A0F98EE7000004ED00E070B505463D
:102460000C46002D15D0E4B1FFF780FBDFF868C003
:10247000DCF814006B68C11A2268B2F1FF3F18D073
:102480002E68DCF828C0664515D0834213D8012495
:102490001DE0502080F31188BFF34F8FBFF36F8F83
:1024A000FEE7502080F31188BFF34F8FBFF36F8F8B
:1024B000FEE700240BE08A4206D9501A2060284625
:1024C000FFF756FC002402E0002020600124FFF703
:1024D0006DFB204670BD0000180000202DE9F04F74
:1024E00085B081460F9F0E9E8A4690469B464FEAD6
:1024F0008800FFF757FA054628000AD05C20FFF74E
:1025000051FA04460CB1256304E02846FFF764FB4A
:1025100000E000249CB1002084F8590003905B4641
:10252000424651460197009602944846FEF7CDFF79
:102530002046FEF76FFE05B00120BDE8F08F05B024
:102540004FF0FF30BDE8F08F70B586B00646DDF87D
:1025500028C00C9C0B98002816D0ECB15C25049583
:102560002063022084F85900002005AD0390CDF8C7
:1025700000C0019502943046FEF7A7FF2046FEF703
:1025800049FE059806B070BD502080F31188BFF356
:102590004F8FBFF36F8FFEE7502080F31188BFF39A
:1025A0004F8FBFF36F8FFEE70548C169002903D045
:1025B000806B18B1002070470120704702207047DF
:1025C00018000020014840697047000018000020F2
:1025D0002DE9F04100262F4FB86B002808D0386A4B
:1025E000401C3862786A00B101263046BDE8F081AF
:1025F0007869451C7D619DB97868006838B15020C4
:1026000080F31188BFF34F8FBFF36F8FFEE77868B9
:10261000B9687960B860B86A401CB862FFF70AF917
:10262000386BDFF8748085420DD37868006838B164
:102630007868C068C468606885420ED2386302E07A
:102640004FF0FF3038633868C06A00EB800058F8FC
:1026500020000128C6D90126C4E7201DFFF726FA6D
:10266000A06A18B104F11800FFF720FAE16AB8690E
:10267000814200D9B96101EB810008EB8000211D86
:10268000FFF767FAE06A3968C96A8842CDD3012644
:10269000CBE70000180000201801002070B50446A8
:1026A0000021002833D01B4D2868844207D05020D9
:1026B00080F31188BFF34F8FBFF36F8FFEE7206D5C
:1026C00038B1401E2065E36CE26A9A421FD040B1E7
:1026D0001DE0502080F31188BFF34F8FBFF36F8F41
:1026E000FEE7201DFFF7E2F9E06CE062C0F1380080
:1026F000A061E06AA969884200D9A861064900EB97
:10270000800001EB8000211DFFF723FA012108461C
:1027100070BD0000180000201801002070B5C068CE
:10272000C468002C14D004F11800FFF7BFF9164D4F
:10273000A86BA8B104F118011448FFF70AFAE06A7F
:102740002968C96A88421CD901200121696270BDCB
:10275000502080F31188BFF34F8FBFF36F8FFEE7D8
:10276000201DFFF7A3F9E06AA969884200D9A86192
:10277000074900EB800001EB8000211DFFF7E9F91C
:10278000DDE7002070BD000018000020A00500203B
:10279000180100202DE9F047002400272D4DA86BDB
:1027A000002807D0FFF7E2F9A86B401EA863A86BCA
:1027B00040B149E0502080F31188BFF34F8FBFF341
:1027C0006F8FFEE7286900283ED0234E30684FF017
:1027D000010800B3A6F59169F068C46804F1180017
:1027E000FFF764F9201DFFF761F9E06AA9698842E3
:1027F00000D9A86100EB800009EB8000211DFFF7E4
:10280000A8F9E06A2968C96A884201D3C5F824801A
:1028100030680028E0D10CB1FFF70CF82C6A4CB1FD
:10282000FFF7D6FE08B1C5F82480641E002CF7D14E
:1028300000202862686A38B1012708493807086013
:10284000BFF34F8FBFF36F8FFFF7B0F93846BDE886
:10285000F087000018000020A005002004ED00E033
:1028600030B587B00024FEF719FD134DA868B0B14C
:1028700000200690059004AA05A906A8FFF734F9E0
:1028800005990698022200920191029000230BA163
:102890000C48049AFFF758FEE86000B1012414B117
:1028A00007B0204630BD502080F31188BFF34F8F12
:1028B000BFF36F8FFEE7000054000020546D7220BC
:1028C0005376630029190008F0B585B084460A9D47
:1028D00016461F460022BCF1000F14D0164CA0680B
:1028E00000B300910196CDF808C006291BDAFFF766
:1028F0005BFE02280FD000231A466946A068FFF746
:10290000F3FB024615E0502080F31188BFF34F8F90
:10291000BFF36F8FFEE700232A466946A068FFF7E2
:10292000E3FB024605E000233A466946FFF794FCC4
:10293000024605B01046F0BD540000208C29000866
:102940000000000000000000000000000000000087
:10295000000200001800000000000000000000005D
:10296000010202030405060708090A0B0C0D0E0FED
:102970001010000000000000000001020304060720
:10298000080900000000010203040000646566619C
:10299000756C745461736B00B82900080000002046
:1029A000900000006C010008482A000890000020F8
:1029B000801F0000880100080000000000000000E7
:1029C0000100000010000000000000000024F400DE
:1029D00000000000000000000000000000000000F7
:1029E00000000000000000000000000000000000E7
:1029F00000000000000000000000000000000000D7
:102A000000000000000000000000000000000000C6
:102A100000000000000000000000000000000000B6
:102A200000000000000000000000000000000000A6
:102A30000000000000000000000000000000000096
:082A4000AAAAAAAA00000000E6
:0400000508000131BD
:00000001FF
